:1005540041542B43495053544152543D2254435027
:10056400222C2233392E39372E39382E3337222C88
:10057400383038300D0A0041542B43495053454E0E
:10058400443D370D0A0041542B434950434C4F53CB
:04059400450D0A0007
:10075500012401012300091A000000000000000027
:010765000093
:0C0775007F177E987D46DDFEDEFADFF681
:010781002255
:1004F200750C05E524F50EE4F50FEFF510EEFF336C
:1005020095E0EFF511E51AB4FF0985201285211354
:10051200750C077F09781A7401F608DFFCE50C24D4
:1005220030F50D1207417BFF7A0579541206FD1250
:1005320007757BFF7A05797B1206FD1207757B0032
:100542007A00790DAD0C1206407BFF7A05798A029A
:0205520006FDA4
:0300230002038A4B
:10038A00C0E0C083C082C0D075D000C000C004C025
:10039A0006C007209803020455C298741A2523F848
:1003AA00A699E523B4090040030204559003BDF859
:1003BA002828730203D80203E80203F80203FD02A5
:1003CA00040202041102042002042502042A741AF7
:1003DA002523F8E6B4FF05752301806F806A741A35
:1003EA002523F8E6B48605752302805F805A7523B3
:1003FA000380587523048053741A2523F8E6700580
:10040A0075230580468041741A2523F8E670057520
:10041A002306803780327523078030752308802BA6
:10042A00741A2523F8E6251BFFEF251CFFEF251D6F
:10043A00FFEF251EFFEF251FFFEF2520FFEF2521E8
:10044A00FFEF7004F5238003752300D007D006D090
:0C045A0004D000D0D0D082D083D0E0329B
:100598000519E519700205181207158E0A8F0B1236
:1005A80005D88E088F09AE18AF197C007D64120338
:1005B80027ED4C70031206D9E519B41AD3E518B41F
:1005C80004CEE4F518F519AF0BAE0A1204F280C098
:0707CA00AE071FEE70FA22DA
:10074100438920758DF4758BF4758780759850D227
:04075100AFD28E2273
:0A07A500C2998F993099FDC2992284
:1006FD001202E1FF60111207A57F051207CA7401EE
:08070D0029F9E43AFA80E9221F
:060640008B148A158916D7
:10064600E4FCECC39D501AAB14AA15A9168C82754E
:1006560083001202FAFF1207A57F051207CA0C8053
:01066600E1B2
:010667002270
:10000300D3EF9400EE940040147D6E7C00ED1D70E0
:0D001300011CED4C70F7EF1F70E61E80E33E
:0100200022BD
:0807AF007F5B7E02DEFEDFFA33
:0107B700221F
:0807B8007F0B7E02DEFEDFFA7A
:0107C0002216
:10061500C2B71207AFD2B71207B830B71B7F017E3A
:1006250000120003050DE50D7002050CD39405E5D8
:0A0635000C940040E57F00227F01D5
:01063F002298
:0906B5007F017E001200037FCCDE
:1006BE00E4FDC2B7EF1392B77E06AC061EEC70FADD
:0A06CE00D2B7EFC313FF0DBD08E81B
:0106D80022FF
:10069000E4FDC2B7D2B7A2B7E433C43333335480D6
:1006A000FCEEC3134CFE7F04AC071FEC70FA0DBDCB
:0406B00008E0AF06A9
:0106B4002223
:0B078F001206151206B57F440206BEDC
:0B079A001206151206B57FBE0206BE57
:10071500E4FFFE12078F12079A120690AB07120626
:0507250090EFFEEBFF68
:01072A0022AC
:1005D800C3EE64809480500DEF1F70011E6307FF07
:1005E8006306FF8002B2A0AD07AC06EC1201318FA2
:1005F8000F8E0E8D0D8C0CE4FFFE7DC87C40AB0F7A
:0C060800AA0EA90DA80C12002612016A0F
:0106140022C3
:0907C100FF018600000000007930
:0C0782007F177E987D46DDFEDEFADFF674
:01078E002248
:0707D100AE071FEE70FA22D3
:10072B00438920758DFA758BFA758780759850D231
:06073B00AFD2ACD28E2209
:0E076700C2ACC2998F993099FDC299D2AC22D2
:060668008B158A168917AC
:10066E00E4FCECC39D501AAB15AA16A9178C827523
:10067E0083001202FAFF1207677F051207D10C8062
:01068E00E18A
:01068F002248
:1006D900780C7C007D007BFF7A0779C17E007F0959
:1006E9001202BB12072B7B007A00790C7D091206D6
:0406F900680207820A
:10002600EC4D6011E8497017ED33EC3304600DE4D4
:10003600FCFFFEFD22E933E8330470F80201D61214
:1000460001A158046009E4CC248150062850090215
:1000560001E02840030201DDC0E0EB4A7044B980AC
:1000660006D0E0FB0201CCEF4E701CBD8008EBFF12
:10007600EAFEE9FD80EBE98DF0A4FEE5F002010F52
:10008600E9CDF9EAFEEBFFEF89F0A4FCE5F0CE89B5
:10009600F0A42EFFE435F0CD89F0A42DFEE435F072
:1000A6008067EF4E7005BD80D780C3EF8BF0A4ACA0
:1000B600F0EE8BF0A42CFCE435F0F8EF8AF0A42CDB
:1000C600E5F038FCE433CB8DF0A42CFCE5F03BF8EE
:1000D600EE8AF0A42CFCE5F038F8E433CF89F0A4DE
:1000E6002CFCE5F038CF3400CE89F0A42FFFE5F0E4
:1000F6003EFEE433C98DF0A42EFEE5F039CD8AF03C
:10010600A42FFFE5F03EFEE43DFD33D0E0FB5007B3
:100116000BBB000F0201E0EC2CFCEF33FFEE33FECD
:06012600ED33FD0201B8FB
:10012C0075F020800E75F010800575F0087D007E4E
:10013C00007F003392D530D50312037CEC33401092
:10014C00EF33FFEE33FEED33FDEC33FCD5F0ED2257
:0E015C00E5F0247EA2D513CC92E7CDCEFF2293
:10016A00EDD2E7CD33EC3392D524814006E4FFFE8D
:10017A00FDFC22FCE4CFCECDCC24E0501174FF80EC
:10018A00EDC3CC13CCCD13CDCE13CECF13CF047089
:07019A00F030D5DE02037C0A
:1001A100E9D2E7C933E833F892D5EDD2E7CD33ECA4
:0701B10033FC5002B2D5221D
:1001B800EC30E7100FBF000C0EBE00080DBD0004A8
:1001C8000BEB6014A2D5EB13FCED92E7FD2274FF54
:1001D800FCFDFEFF22E480F8A2D574FF13FC7D80AD
:0301E800E480EFC1
:0300000002046691
:0C046600787FE4F6D8FD7581240204AD17
:1001EB00E709F608DFFA8046E709F208DFFA803EF6
:1001FB0088828C83E709F0A3DFFA8032E309F608E3
:10020B00DFFA8078E309F208DFFA807088828C834A
:10021B00E309F0A3DFFA806489828A83E0A3F608FE
:10022B00DFFA805889828A83E0A3F208DFFA804CD8
:10023B0080D280FA80C680D4806980F280338010AF
:10024B0080A680EA809A80A880DA80E280CA803318
:10025B0089828A83ECFAE493A3C8C582C8CCC58390
:10026B00CCF0A3C8C582C8CCC583CCDFE9DEE78060
:10027B000D89828A83E493A3F608DFF9ECFAA9F0DF
:10028B00EDFB2289828A83ECFAE0A3C8C582C8CC35
:10029B00C583CCF0A3C8C582C8CCC583CCDFEADE4E
:1002AB00E880DB89828A83E493A3F208DFF980CCB0
:1002BB0088F0EF60010E4E60C388F0ED2402B404A9
:1002CB000050B9F582EB2402B4040050AF23234550
:0602DB00822390023B7338
:1002E100BB010689828A83E0225002E722BBFE021B
:0902F100E32289828A83E493224E
:1002FA00BB010CE58229F582E5833AF583E02250B9
:10030A0006E92582F8E622BBFE06E92582F8E22202
:0D031A00E58229F582E5833AF583E493221C
:10032700BC000BBE0029EF8DF084FFADF022E4CCBA
:10033700F875F008EF2FFFEE33FEEC33FCEE9DEC83
:10034700984005FCEE9DFE0FD5F0E9E4CEFD22EDC9
:10035700F8F5F0EE8420D21CFEADF075F008EF2F13
:10036700FFED33FD4007985006D5F0F222C398FD04
:050377000FD5F0EA22A1
:0E037C00C3E49FFFE49EFEE49DFDE49CFC2292
:10047200020598E493A3F8E493A34003F68001F203
:1004820008DFF48029E493A3F85407240CC8C3338B
:10049200C4540F4420C8834004F456800146F6DF5A
:1004A200E4800B0102040810204080900755E47E8E
:1004B200019360BCA3FF543F30E509541FFEE4934F
:1004C200A360010ECF54C025E060A840B8E493A316
:1004D200FAE493A3F8E493A3C8C582C8CAC583CA41
:1004E200F0A3C8C582C8CAC583CADFE9DEE780BEF9
:010766000092
:00000001FF
